:1000000032EF0BF068961200046ED8CF05F0E0CF07
:1000100006F00001E9CF0CF0EACF07F0E1CF08F0DD
:10002000E2CF09F0D9CF0AF0DACF0BF0F3CF12F01C
:10003000F4CF13F0FACF14F0F5CF15F0F6CF16F099
:10004000F7CF17F000C00EF001C00FF002C010F0A3
:1000500003C011F0A0AA30EF00F0A1BAE4EF07F05E
:100060000EC000F00FC001F010C002F011C003F08C
:100070000CC0E9FF07C0EAFF078E08C0E1FF09C016
:10008000E2FF0AC0D9FF0BC0DAFF12C0F3FF13C0B2
:10009000F4FF14C0FAFF15C0F5FF16C0F6FF17C035
:1000A000F7FF045006C0E0FF05C0D8FF1000F76A54
:1000B000BE0FF66E000EF7220900F5501200000385
:1000C00002FFFFFFFFFFFFFFFFFFFFFFFFFFF76ADA
:1000D000DE0FF66E000EF7220900F550120000FF49
:1000E00002FFFFFFFFFFFFFFFFFFFFFFFFFFF76ABA
:1000F000FE0FF66E000EF7220900F55012004000C8
:1001000008004000000000000000000000000000A7
:100110000000000000000000000000000000F76A7E
:100120002E0FF66E010EF7220900F5501200400066
:10013000000040000000000000000000000000007F
:100140000000000000000000000000000000F76A4E
:100150005E0FF66E010EF7220900F550120009023B
:100160004300020100803209040000010202010084
:1001700005240010010424020205240600010524C0
:10018000010001070581030800FA09040100020AC1
:10019000000000070502024000010705820240003E
:1001A0000100F76AB20FF66E010EF7220900F55052
:1001B00012000200F76AC40FF66E010EF722090062
:1001C000F550120012171B20FFFFFFFFF76ADC0F2C
:1001D000F66E010EF7220900F5501200120110010F
:1001E0000200004061043300000101020001F76ACF
:1001F000FE0FF66E010EF7220900F55012000403FF
:10020000090408034300430053001803530045004A
:100210005200490041004C002000440045004D00C0
:100220004F006D92699468A402D06894FCD7F0EFF7
:1002300007F0400E0401016F040E036F180E026FE9
:10024000880E006F046B040E076F580E066F0001D6
:10025000120070A002D0EDDF7090689AF9EF07F0FD
:100260006A6A6892FFEF07F0BB91BABFBB81BA9F81
:10027000BA51100803E2000E016E17D0BBA10BD0DB
:10028000036ABA5114DFFF0802E1000E01D0010E2B
:10029000016E0BD00AD0036ABA5119DFFF0802E1E0
:1002A000000E01D0010E016E00D01200BF51C1033B
:1002B000F3CF01F0F4CF00F0C203F3500026C05199
:1002C000C103F3500020026E1200036AB951700F8F
:1002D000E96E0F0E0320EA6EEF6AB9C0BAF0C4DF10
:1002E000015222E0C06BB9C0BFF0C26B080EC16FF3
:1002F000DDDF01C0E9FF040E0224EA6EEF6AC06B85
:10030000B9C0BFF0C26B080EC16FD0DF02C0BBF036
:1003100001C0BAF0040EBA27000EBB23BAC0E9FF31
:10032000040EBB25EA6EEF6A1200010EB86FB851D9
:100330000F0805E3B8C0B9F0C8DFB82BF8D7120032
:100340002E6A2D6A250E2C6E800E2B6E2F6A306A57
:10035000080E316E806B7F91336A326A7B6B7C91C1
:100360001200AE6BAE5101080AE3036AAE51290FC9
:10037000E96E000E0320EA6EEF6AAE2BF3D7E0DFE2
:100380001B6A010E1C6E1A6A12006A6A686A9F0E66
:100390006B6E3D0E696E6E6AC8DFE3DF160E706E1F
:1003A00068A602D02FDEFCD76D9843DF030E226EC5
:1003B00005EF08F0698468986D820BEF08F0689C7F
:1003C00011EF08F0B3C023F0120023681200B16BE4
:1003D000275028102EE0B1513F082BE31D5005E0B7
:1003E000020A09E0010A0DE012D026C003F02550F0
:1003F000AEDEB26F0CD026C003F02550F8DEB26F2F
:1004000006D026C003F02550E1DEB26F00D0252AC9
:10041000D8B4262A2750D8B428062706B151B12BC4
:10042000580FE96E040EEA6ED8B0EA2AB2C0EFFFA8
:10043000CFD72750281004E1B151400801E01A6AD3
:10044000B1C0B3F0BFDF1200266A256A1D6A04013D
:100450001B51010A000107E0030A0BE0010A0DE04D
:10046000220A22E036D0286A120E276E030E1D6E75
:1004700032D0286A430E276E2ED0020E1D6E036AFC
:1004800004011A511E0FE96E000E0320EA6EEF50B0
:10049000036A256E03C026F026C003F02550000134
:1004A000A6DE286A276E17D0036A04011A510001DC
:1004B00081DE266A256E253C02D0265208E026C041
:1004C00003F0255044DE286A276E05D002D07DDF78
:1004D00011D07BDF0FD004011F5308E1285203E144
:1004E00027501E5D03E2286A1EC427F0010E1A6E13
:1004F00000016DDF9EEF03F0B05304E1040E226EA5
:1005000014DFC9D0050E226E040EB36F980EB26FC1
:10051000010EB16FB1510F08D8A0BDD0B1C0B9F074
:10052000D4DEB46B036AB151D2DDFF0859E0040E8A
:10053000B46FD890B135036AF2DD0900F5CF03F04E
:10054000B56F03C0B6F0C06BB1C0BFF0C26B080E90
:10055000C16FACDE01C0B8F0010E0124016E000EC7
:100560000220036E01C0E9FF040E0324EA6EB5C049
:10057000EFFFC06BB1C0BFF0C26B080EC16F96DE5B
:1005800001C0B8F0020E0124016E000E0220036EBD
:1005900001C0E9FF040E0324EA6EB3C0ECFFED5284
:1005A000B2C0EFFFD890B135036AB9DD0900F5CFCD
:1005B00003F0B2270350B323880EB76FB6B1B781EB
:1005C000B6B3B783C06BB1C0BFF0C26B080EC16FCA
:1005D0006DDE01C0E9FF040E0224EA6EB7C0EFFF32
:1005E000036AB15164DDFF0840E0B483C06BB1C061
:1005F000BFF0C26B080EC16F59DE02C0B9F001C076
:10060000B8F0040EB827000EB923020EB825016E0B
:10061000000EB921036E01C0E9FF040E0324EA6E47
:10062000B3C0ECFFED52B2C0EFFFD890B135036A12
:100630005EDD0900F5CF03F0B2270350B323C06B92
:10064000B1C0BFF0C26B080EC16F30DE02C0B9F09E
:1006500001C0B8F0040EB827000EB923B8C0E9FFF6
:10066000040EB925EA6E400EEF6EB451060802E1A1
:100670000E0EB46F036AB1511ADD0108D8A4B48913
:10068000036AB151700FE96E0F0E0320EA6EB4C019
:10069000EFFFB12B3FD798EF03F004011951000A87
:1006A00000010DE0010A14E0020A1EE0060A27E03C
:1006B000030A2CE00E0A2CE0010A30E03DD01CC0F9
:1006C00058F40401596B020E0001B36F7BDE36D083
:1006D00004011A2D06D0010E1C160001B36B72DE48
:1006E00002D0000172DE2AD004011A2D05D01C822E
:1006F0000001B36B67DE02D0000167DE1FD0020E7F
:100700001A6E1AC424F0B36B5DDE18D09DD616D0D5
:100710001BC058F4010EB36F55DE10D004011A51FE
:10072000010808E31AC41BF01AC4B0F00001E4D6B3
:10073000B36B48DE000102D048DE00D012EF05F0B6
:100740001BC0B0F004011951000A000105E00A0ABB
:100750000BE0010A26E037D00401586B596B020EFA
:100760000001B36F2FDE31D0B05319E0010EB05D40
:10077000036A17DD016E04011C5DD8A002D00001E0
:100780000ED0036A1C51290FE96E000E0320EA6E99
:10079000EFCF58F4010E0001B36F14DE01D015DE67
:1007A00014D0B0530EE0036A04011C51290FE96E06
:1007B000000E0320EA6E1AC4EFFF0001B36B02DEE5
:1007C00001D003DE02D001DE00D012EF05F0B191BE
:1007D000B0BFB181B09FB1A117D0C06BB0C0BFF0A6
:1007E000C26B080EC16F62DD02C0B3F001C0B2F08F
:1007F000040EB227000EB323B2C0E9FF040EB325E6
:10080000EA6E880EEF6E0DD0C06BB0C0BFF0C26B49
:10081000080EC16F4BDD01C0E9FF040E0224EA6E31
:10082000EF6A87EF04F0B191B0BFB181B09FB1A181
:1008300017D0C06BB0C0BFF0C26B080EC16F36DD01
:1008400002C0B3F001C0B2F0040EB227000EB32311
:10085000B2C0E9FF040EB325EA6E840EEF6E0ED02F
:10086000C06BB0C0BFF0C26B080EC16F1FDD01C00E
:10087000E9FF040E0224EA6E840EEF6E8DEF04F0A1
:10088000B191B0BFB181B09FB1A117D0C06BB0C062
:10089000BFF0C26B080EC16F09DD02C0B4F001C029
:1008A000B3F0040EB327000EB423B3C0E9FF040E67
:1008B000B425EA6EEFCFB2F00ED0C06BB0C0BFF07F
:1008C000C26B080EC16FF2DC01C0E9FF040E022406
:1008D000EA6EEFCFB2F0B2AF02D0B2B502D0000EE6
:1008E00001D0010E016E97EF04F01CC4BAF0BCDC1D
:1008F000015229E004011951010A000105E0020A30
:1009000009E0030A0DE01DD01CC4B0F060D7B36B42
:1009100059DD19D01CC4B0F086D7B36B53DD13D0AA
:100920000401586B596B1CC4B0F00001A9D70152E7
:1009300004E0010E0401586F0001020EB36F42DDA6
:1009400002D043DD00D012EF05F0FE0E236E120040
:1009500004011C2D01D002D01C5349E11951000A99
:1009600000010BE0010A0DE0210A1CE0010A1FE072
:10097000030A2EE0010A31E037D0010E826FE5DF75
:1009800035D0040EEA6E580EE96EE26A340EE16E5E
:10099000080E016EE6CFEEFF012EFCD71EC4B3F0A9
:1009A00011DD24D0020E826F7F81CFDF1FD0040EB5
:1009B000EA6E580EE96EE26A2B0EE16E070E016ECA
:1009C000E6CFEEFF012EFCD7070EB36FFBDC0ED097
:1009D0001AC480F0B36BF6DC09D01AC433F01BC420
:1009E00032F0B36BEFDC02D0F0DC00D00401000188
:1009F00012EF05F01A6A040118517F0B000A00017A
:100A000007E0010A07E0030A07E0230A07E008D02D
:100A100044D608D095D606D068D704D099D702D04E
:100A2000D4DC00D038EF07F0C06BB1C0BFF0C26BB0
:100A3000080EC16F3BDC01C0E9FF040E0224EA6E20
:100A4000EFCFB3F0B251020806E1B3AD02D0B26B02
:100A500002D0010EB26FB251030819E1840EB36FD8
:100A6000C06BB1C0BFF0C26B080EC16F1FDC02C00B
:100A7000B7F001C0B6F0040EB627000EB723B6C01B
:100A8000E9FF040EB725EA6E840EEF6E07D0B22D93
:100A900003D0C80EB36F02D0880EB36FD890B135B3
:100AA000036A8FEC00F00900F5CF03F0B46F03C0C8
:100AB000B5F0C06BB1C0BFF0C26B080EC16F56EC91
:100AC00001F001C0B6F0010E0124016E000E0220FB
:100AD000036E01C0E9FF040E0324EA6EB4C0EFFF09
:100AE000B5B1B381B5B3B383C06BB1C0BFF0C26B56
:100AF000080EC16F56EC01F001C0E9FF040E02249C
:100B0000EA6EB3C0EFFF1200036ABE51700FE96EC8
:100B10000F0E0320EA6EEF5219E0C06BBEC0BFF0AB
:100B2000C26B080EC16F56EC01F002C0C0F001C0EC
:100B3000BFF0040EBF27000EC023BFC0E9FF040EA4
:100B4000C025EA6EEFCFC1F0C1AF02D0000E01D0D8
:100B5000010E016E1200B9C0BEF0D6DF0152D8B44A
:100B60007CD0C06BB9C0BFF0C26B080EC16F56EC31
:100B700001F002C0BFF001C0BEF0040EBE27000E9F
:100B8000BF23010EBE25016E000EBF21036E01C002
:100B9000E9FF040E0324EA6EBAC0EFFFBC5102085D
:100BA0001EE1C06BB9C0BFF0C26B080EC16F56EC3E
:100BB00001F002C0BFF001C0BEF0040EBE27000E5F
:100BC000BF23BEC0E9FF040EBF25EA6EEFCFBDF024
:100BD000BDAD02D0BC6B02D0010EBC6F18D0BC51B1
:100BE000040815E1C06BB9C0BFF0C26B080EC16F3D
:100BF00056EC01F001C0E9FF040E0224EA6EEFCFCB
:100C0000BDF0BDAD03D0010EBC6F01D0BC6BBC2DDF
:100C100003D0C80EBD6F02D0880EBD6FBBB1BD81C1
:100C2000BBB3BD83C06BB9C0BFF0C26B080EC16F50
:100C300056EC01F002C0BFF001C0BEF0040EBE27AA
:100C4000000EBF23BEC0E9FF040EBF25EA6EBDC083
:100C5000EFFF010E016E03D000D0000E016E1200F6
:100C60008251010A03E0030A13E024D0EA6A340E39
:100C7000E96E040EE26E180EE16E080E016EE6CF0C
:100C8000EEFF012EFCD7B36BE2EC01F0826B14D0C7
:100C9000EA6A2B0EE96E040EE26E180EE16E070E84
:100CA000016EE6CFEEFF012EFCD7826BB36BE2EC58
:100CB00001F002D0826B00D092EF06F0C06BB1C0A1
:100CC000BFF0C26B080EC16F56EC01F002C0B3F06A
:100CD00001C0B2F0010E0124016E000E0220036E6D
:100CE00001C0E9FF040E0324EA6E036AEFCF01F0AE
:100CF00003C002F088EF06F07C91020EB16FB26F74
:100D000093DE8DEF06F07C817E6B020EB16FD6D73D
:100D100001C07DF07D5301E1EFD797EF06F0B053AE
:100D200002E19ED704D0B051020801E1ECD71200D5
:100D3000B1C06EFFB15303E0040E226E02D0020E6A
:100D4000226EA8EF06F01B6A1A6A24C0B1F0F0D731
:100D500017EF07F0B1C0BEF0D7DE015246E0C06B1E
:100D6000B1C0BFF0C26B080EC16F56EC01F002C0FB
:100D7000BAF001C0B9F0040EB927000EBA23020E72
:100D8000B925016E000EBA21036E01C0E9FF040E01
:100D90000324EA6EECCF03F0ED52EFCFB7F003C0BF
:100DA000B8F0B8C0EAFFB7C0E9FFB3C0E2FFB2C015
:100DB000E1FFB5C002F0B4C001F0015202E0022A26
:100DC00002D0025206E0E6CFEEFF012EFCD7022E43
:100DD000FAD7B1C0B9F0B5C0BBF0B4C0BAF0B6C074
:100DE000BCF0B9DE015003D000D0000E016E12003D
:100DF000020EB16FB36B3C0EB26FB56B7BC0B4F03B
:100E0000020EB66FA7DF7BC081F07B6B12007B53B5
:100E100001E0EEDF1CEF07F0B0530AE11A2C03D01B
:100E2000E7EC01F004D01A50020801E18CD704D09D
:100E3000B051020801E1EBD712002130AE6FAE33A2
:100E4000AE331F0EAE17215242E1040100513C0B9C
:100E50000001AF6F430E040100170001AF513408C9
:100E60001EE104010451800B01E0046B0001C2D5B6
:100E70006D98233C05D0B16B030EB26FD5DD0ED05B
:100E8000B16B020EB26FD0DD2350FE0807E0B96BE4
:100E9000BB6B23C0BAF0040EBC6F5DDE17D0AF5140
:100EA000040814E1B06B3BDFB16B020EB26FBCDD26
:100EB0002350FE080AE0233C01D007D0B96BBB6B7E
:100EC00023C0BAF0010EBC6F46DE00D07BD02150AB
:100ED000040813E1430E0401041723680001B06BFA
:100EE0009BDF233C01D008D0B96BBB6B23C0BAF0A9
:100EF000020EBC6F30DE00D065D021B42CD0C06BA8
:100F0000AEC0BFF0C26B080EC16F56EC01F002C05C
:100F1000B1F001C0B0F001C001F0040E0224036E74
:100F200001C0B2F0B36FC06BAEC0BFF0C26B080EB1
:100F3000C16F56EC01F001C0E9FF040E0224EA6E15
:100F4000EF50430BB3C0EAFFB2C0E9FFEF6EAEC093
:100F5000B0F0E5DE37D0C06BAEC0BFF0C26B080E9C
:100F6000C16F56EC01F002C0B1F001C0B0F0040E48
:100F7000B027000EB123B0C001F0040EB125036EFE
:100F8000B0C0B2F0B36FC06BAEC0BFF0C26B080EA2
:100F9000C16F56EC01F002C0B5F001C0B4F0040E10
:100FA000B427000EB523B4C0E9FF040EB525EA6EE0
:100FB000EF50430BB3C0EAFFB2C0E9FFEF6EAEC023
:100FC000B0F02ADF1BEF08F0A19A225201E139D0DC
:100FD000685237E068A404D069A402D011EF01F090
:100FE0006DA201D02ED068AA04D069AA02D029EF40
:100FF00001F068A204D069A202D030EF01F068A02D
:1010000004D069A002D0C5EF01F068A804D069A897
:1010100002D0DAEF01F068AC04D069AC02D0DFEFA7
:1010200001F0AD6B68A608D069A606D06CCF21F0A0
:1010300002EC00F002D701D004D0AD51AD2B030873
:10104000F1E230EF00F00D20566F6C746167653D82
:101050002530312E326656006D6A696A080E6F6E51
:1010600094503009946E226A196AF2BE198EF29E6B
:10107000B1EC01F019BEF28E3FEF08F0EDD764EF4E
:1010800008F0196AF2BE198EF29EB1EC01F019BE99
:10109000F28E6D6A140E6F6E696A6D86010E226E95
:1010A00055EF08F06DB601D0ECD7222C0BD06DBAFD
:1010B00009D0686A696AA08AC00EF212110E696EC0
:1010C000020E226E1200DAD7EDDF22500208FCE198
:1010D0004CEF0BF01B50016E61EF0BF08E0E006EAB
:1010E0008CC001F08BC002F0036A015209E102C01A
:1010F00001F0026A080E005E015202E1006A08D0A7
:10110000D89001BE04D0023601360006F9D7019E00
:1011100076EF0BF09851D8B471D0006E9C51D8B4D2
:101120006DD0002604E3810E002668E204D07F0E15
:10113000005E64E363E099C0A0F09D51A01B998F0D
:101140009D8F9B519F03F4CFA2F09A519E03F4CF41
:1011500003F0F3CFA1F09F03F350A227F450A12393
:10116000000E03229B519E03F350A227F450A123AB
:10117000000E026A0322022299519F03F350A12715
:10118000F4500322000E022299519E03F3500326CD
:10119000F4500222000E016A01229B519D03F3507C
:1011A000A127F4500322000E022201229A519D032E
:1011B000F3500326F4500222000E012299519D03A0
:1011C000F3500226F4500122002A01BE05D0A137B7
:1011D0000336023601360006000EA1AF0AD0032AFC
:1011E00002220122015005E1025003E1035001E116
:1011F000002AA0BF018EA0AF019E04D0006A016A40
:10120000026A036A12008F51D8B4A5D09B6F935124
:10121000D8B4A1D09B5F05E37F0E9B27D8B09BD0AD
:1012200006D0810E9B5FD8A096D0D8B494D09BC036
:1012300000F0016A026A036A9A6B90C099F0998F74
:1012400091C098F092C097F0190E9B6F9651975FDE
:101250000DE2010E985F0AE2995F08E29A5F06E2EA
:101260009A2B992B982B9651972728D09551985FB8
:1012700012E2010E995F0FE29A5F0DE29A2B992B11
:10128000955198279651972719E3982B17E1992B99
:1012900015E19A2B13D094518009995F0EE2010E4B
:1012A0009A5F0BE29A2B94518009992795519827C0
:1012B000E9E3992BE7E19A2BE5D703809B2F01D037
:1012C0000BD0D8909737983799379A37D8900336FC
:1012D000023601369C37BAD79CA106D0D89001328D
:1012E000023203329C3302D0000635E09CBF1ED090
:1012F000D8909737983799379A379651975F07E282
:10130000010E985F04E2995F02E29A5F1AE3955139
:10131000985F05E2010E995F02E29A5F12E3945131
:101320008009995F03E2010E9A5F0BE3032A09E14A
:10133000022A07E1012A05E1002A0DE0013202320A
:10134000033290C09BF094519B1B9BAF02D0018E47
:1013500006D0019E04D0006A016A026A036A9BEF0C
:101360000BF09B91F2BE9B81F29E7B513E0802E204
:101370003E0E7B6F7B517B2B036A3C0FE96E000EA8
:101380000320EA6E9AC0EFFFF29E9BB1F28ECCEF83
:1013900009F099C09AF0E5D7196AF2BE198EF29E4B
:1013A000020EBE6F84EC05F019BEF28E015207E00A
:1013B000196AF2BE198EF29E1BDD19BEF28EE8EF9D
:1013C00009F07B513E0801E2FCD798C099F0E1D7C3
:1013D00012000900F6CF8CF0F7CF8DF0F5CF98F022
:1013E000F0DF8CC0F6FF8DC0F7FF8B2FF2D7AAEF8E
:1013F0000BF09851B608986F036A99C09CF0998FCA
:10140000D89099339A339B3303320232013200323F
:10141000982FF6D79CAF0BD0001E011E021E031E94
:10142000002AD8B4012AD8B4022AD8B4032A87EFF4
:101430000AF0D8B203D0EA6AA00EE96E006A016A27
:10144000026A036AA06BA16BA26BA36B9F519E11F2
:101450009D119C112CE0200EA46FD89098379937DD
:101460009A379B37A037A137A237A3379F51A35D87
:1014700008E19E51A25D05E19D51A15D02E19C51F3
:10148000A05D0FE39C51A05F9D51D8A09D3DA15F41
:101490009E51D8A09E3DA25F9F51D8A09F3DA35FC3
:1014A000D8800036013602360336A42FD6D7A0C026
:1014B000EFFFA1C0ECFFA2C0ECFFA3C0ECFF120045
:1014C000E950906F8F51926F19E08EC09BF08DC0E4
:1014D0009AF08CC099F08BC098F09F6B9E6B200E99
:1014E0009D6F820E9C6F16DE03C08EF002C08DF0E1
:1014F00001C08CF000C08BF0922FE7D78EC09BF01C
:101500008DC09AF08CC099F08BC098F072D703C050
:101510008EF002C08DF001C08CF000C08BF08EAF59
:101520000DD09007908B8B1F8C1F8D1F8E1F8B2BC8
:10153000D8B48C2BD8B48D2BD8B48E2B3B0E976F90
:101540009A0E966FCA0E956F946B0A0E926F8F511A
:10155000D8B4902BD882EA6A8B0EE96E8EC09BF0CD
:101560008DC09AF08CC099F08BC098F097C09FF016
:1015700096C09EF095C09DF094C09CF05ADF01503B
:1015800000520FE18F29925D0CE090510CE00F0B9F
:10159000925D01E037E290BF35D090BD04D0200EBF
:1015A0002DD0200E901790AB0CD0909B8F51D8A4CB
:1015B00090070050906F2D0E986F03DF9051006ED2
:1015C000906B8F51925D0AE10050906F2E0E986FD4
:1015D000F8DE9051006E200E9017000E300E90AB8A
:1015E0000DD0909B8F51D8A490070050906F2D0E76
:1015F000986FE7DE9051006E906B300E002600C0B1
:1016000098F0DFDED89297C09BF096C09AF095C014
:1016100099F094C098F09F6B9E6B9D6B0A0E9C6F27
:1016200008DF03C097F002C096F001C095F000C03B
:1016300094F0922F8FD7B7EF0BF0EA6A8B0EE96E1A
:10164000EF500EE00F0E016E006A002EFED7012E45
:10165000FBD78F0E006E002EFED70000EF2EF2D7C4
:10166000C3EF0BF0F86AD09E078EEA6AE96A226A35
:10167000286A276A7B6B826BC150C00B0F09C16E51
:10168000070EB46E1E6A040E1F6E0C0E206E95922D
:101690008C92A0EC01F017D57FA1FED703DD866BFD
:1016A000856BC150C00B0E09C16EC080C082C08462
:1016B000C09EC280000E016EC250C30B0110C26EEC
:1016C00009D5015260E0C282C2B2FED7C450846B19
:1016D000836F8551835D03E18651845D4BE0959274
:1016E0008C8284C08CF083C08BF0F8D49B6B9A6B97
:1016F000200E996F810E986F03C09FF002C09EF07C
:1017000001C09DF000C09CF005DD00C08BF001C061
:101710008CF002C08DF003C08EF003C092F002C0C6
:1017200091F001C090F000C08FF0966B956B946BB8
:10173000890E936F68D503C08AF002C089F001C09A
:1017400088F000C087F0460EF66E100EF76E0A0E97
:101750008B6F3FD6C90EE96E8AC08EF089C08DF0BE
:1017600088C08CF087C08BF0020E8F6FA9D6560E02
:10177000986F27DE84C086F083C085F095928C92A6
:0A178000640E8B6F5AD78AD703005E
:020000040030CA
:0E00000024CE3E1E0005A1000FC00FE00F40F1
:00000001FF
;PIC18F4550
;CRC=95E9  CREATED="03-set-12 13:45"
