:100000002EEF0BF068961200046ED8CF05F0E0CF0B
:1000100006F00001E9CF0CF0EACF07F0E1CF08F0DD
:10002000E2CF09F0D9CF0AF0DACF0BF0F3CF12F01C
:10003000F4CF13F0FACF14F000C00EF001C00FF0AF
:1000400002C010F003C011F0A0AA2AEF00F0A1BA7C
:10005000F2EF07F00EC000F00FC001F010C002F088
:1000600011C003F00CC0E9FF07C0EAFF078E08C00B
:10007000E1FF09C0E2FF0AC0D9FF0BC0DAFF12C0DE
:10008000F3FF13C0F4FF14C0FAFF045006C0E0FFF2
:1000900005C0D8FF1000F76AA60FF66E000EF72213
:1000A0000900F5501200000302FFFFFFFFFFFFFFF2
:1000B000FFFFFFFFFFFFF76AC60FF66E000EF72285
:1000C0000900F550120000FF02FFFFFFFFFFFFFFD6
:1000D000FFFFFFFFFFFFF76AE60FF66E000EF72245
:1000E0000900F550120040000B0040000000000025
:1000F0000000000000000000000000000000000000
:10010000000000000000F76A160FF66E010EF722DD
:100110000900F550120040000000400000000000FF
:1001200000000000000000000000000000000000CF
:10013000000000000000F76A460FF66E010EF7227D
:100140000900F55012000902430002010080320943
:100150000400000102020100052400100104240231
:100160000205240600010524010001070581030B97
:1001700000FA09040100020A00000007050202401B
:1001800000010705820240000100F76A9A0FF66E2F
:10019000010EF7220900F55012000200F76AAC0FB9
:1001A000F66E010EF7220900F550120012171B20FF
:1001B000FFFFFFFFF76AC40FF66E010EF72209007A
:1001C000F5501200120110010200004061043300DA
:1001D000000101020001F76AE60FF66E010EF72238
:1001E0000900F5501200040309040803430043000A
:1001F00053001803530045005200490041004C00D1
:100200002000440045004D004F006D92699468A4A1
:1002100002D06894FCD7FEEF07F0400E0401016F96
:10022000040E036F180E026F880E006F046B040E2D
:10023000076F580E066F0001120070A002D0EDDFAC
:100240007090689A05EF08F06A6A68920AEF08F001
:10025000B791B6BFB781B69FB651100803E2000E42
:10026000016E20D0B7A110D0036AB651F2CFB8F01A
:10027000F29E11DFB8BFF28EFF0802E1000E01D03E
:10028000010E016E0FD00ED0036AB651F2CFB8F056
:10029000F29E11DFB8BFF28EFF0802E1000E01D01E
:1002A000010E016E1200BB51BD03F3CF01F0F4CF7C
:1002B00000F0BE03F3500026BC51BD03F3500020F4
:1002C000026E1200036AB551700FE96E0F0E032023
:1002D000EA6EEF6AB5C0B6F0BBDF015222E0BC6B3C
:1002E000B5C0BBF0BE6B080EBD6FDDDF01C0E9FF1E
:1002F000040E0224EA6EEF6ABC6BB5C0BBF0BE6BA5
:10030000080EBD6FD0DF02C0B7F001C0B6F0040E1A
:10031000B627000EB723B6C0E9FF040EB725EA6E74
:10032000EF6A1200010EB46FB4510F0805E3B4C0B8
:10033000B5F0C8DFB42BF8D71200AE6BAD6B250E4D
:10034000AC6F800EAB6FEA6A2B0EE96EE26AAB0E01
:10035000E16E020E016EE6CFEEFF012EFCD72D6A94
:100360002E6AAB6BEA6A2F0EE96EE26AAB0EE16EA3
:10037000E6CFEEFFAB6BEA6A300EE96EE26AAB0ED7
:10038000E16EE6CFEEFF080EAB6FEA6A310EE96E62
:10039000E26AAB0EE16EE6CFEEFF7D6B7C91336AD5
:1003A000326A7B6B1E907E6B1200286A276AAA6BEA
:1003B000AA5101080AE3036AAA51290FE96E000E47
:1003C0000320EA6EEF6AAA2BF3D7B7DF186A010E93
:1003D000196E176A12006A6A686A9F0E6B6E3D0E8C
:1003E000696E6E6A9FDFE1DF160E706E68A602D03E
:1003F00009DEFCD76D9811DF030E226E0FEF08F0B7
:10040000698468986D8214EF08F0689C19EF08F011
:10041000AFC023F0120023681200AD6B27502810E4
:100420003CE0AD513F0839E31A5005E0020A0EE006
:10043000010A17E020D026C003F02550F2CFAFF01C
:10044000F29E79DEAFBFF28EAE6F15D026C003F0FC
:100450002550F2CFAFF0F29EBEDEAFBFF28EAE6F90
:100460000AD026C003F02550F2CFAFF0F29EA2DEF4
:10047000AFBFF28EAE6F252AD8B4262A2750D8B443
:1004800028062706AD51AD2B580FE96E040EEA6E13
:10049000D8B0EA2AAEC0EFFFC1D72750281004E138
:1004A000AD51400801E0176AADC0AFF0B1DF1200F6
:1004B000266A256A1A6A04011B51010A000107E035
:1004C000030A0BE0010A0DE0220A27E049D0286A5E
:1004D000120E276E030E1A6E45D0286A430E276E41
:1004E00041D0020E1A6E036A04011A511B0FE96E05
:1004F000000E0320EA6E266AEFCF25F026C003F037
:100500002550F2CFACF0F29E000165DEACBFF28E5A
:10051000036A276E03C028F025D0036A04011A512C
:10052000F2CFACF0F29E000139DEACBFF28E036A6E
:10053000256E03C026F0253C02D026520FE026C0CF
:1005400003F02550F2CFACF0F29EF5DDACBFF28E99
:10055000036A276E03C028F005D002D05CDF11D0FB
:100560005ADF0FD004011F5308E1285203E127503E
:100570001E5D03E2286A1EC427F0010E176E0001FB
:100580004CDF07EF04F0AC5304E1040E226ECADE28
:10059000E9D0050E226E040EAF6F980EAE6F010EFD
:1005A000AD6FAD510F08D8A0DDD0ADC0B5F08ADE7B
:1005B000B06B036AAD51F2CFB4F0F29E7CDDB4BFF4
:1005C000F28EFF0865E0040EB06FD890AD35036A77
:1005D000F2CFB4F0F29E97DD0900F5CF03F0B4BF7F
:1005E000F28EB16F03C0B2F0BC6BADC0BBF0BE6B9E
:1005F000080EBD6F58DE01C0B4F0010E0124016E7B
:10060000000E0220036E01C0E9FF040E0324EA6E0F
:10061000B1C0EFFFBC6BADC0BBF0BE6B080EBD6FD1
:1006200042DE01C0B4F0020E0124016E000E022071
:10063000036E01C0E9FF040E0324EA6EAFC0ECFFB5
:10064000ED52AEC0EFFFD890AD35036AF2CFB4F0F3
:10065000F29E59DD0900F5CF03F0B4BFF28EAE274C
:100660000350AF23880EB36FB2A101D0B381B2A300
:1006700001D0B383BC6BADC0BBF0BE6B080EBD6FC9
:1006800012DE01C0E9FF040E0224EA6EB3C0EFFFE0
:10069000036AAD51F2CFB4F0F29EFDDCB4BFF28E2E
:1006A000FF0845E0B083BC6BADC0BBF0BE6B080E6D
:1006B000BD6FF9DD02C0B5F001C0B4F0040EB4277F
:1006C000000EB523020EB425016E000EB521036E97
:1006D00001C0E9FF040E0324EA6EAFC0ECFFED5247
:1006E000AEC0EFFFD890AD35036AF2CFB4F0F29E02
:1006F000F2DC0900F5CF03F0B4BFF28EAE27035051
:10070000AF23BC6BADC0BBF0BE6B080EBD6FCBDDC5
:1007100002C0B5F001C0B4F0040EB427000EB5233A
:10072000B4C0E9FF040EB525EA6E400EEF6EB0517D
:10073000060802E10E0EB06F036AAD51F2CFB4F0BD
:10074000F29EA9DCB4BFF28E010801E0B089036A11
:10075000AD51700FE96E0F0E0320EA6EB0C0EFFFCF
:10076000AD2B1FD701EF04F004011951000A00015D
:100770000DE0010A14E0020A1FE0060A29E0030A5C
:100780002EE00E0A2EE0010A32E040D019C058F4E3
:100790000401596B020E0001AF6F3ADE38D004013C
:1007A0001A2D07D0010E19160001AF6B31DE03D0F0
:1007B0000401000130DE2BD004011A2D06D019826D
:1007C0000001AF6B25DE03D00401000124DE1FD041
:1007D000020E176E1AC424F0AF6B1ADE18D068D65A
:1007E00016D018C058F4010EAF6F12DE10D00401FD
:1007F0001A51010809E31AC418F01AC4ACF0000138
:10080000C2D6AF6B05DE0401000101D004DE7CEF2F
:1008100005F018C0ACF004011951000A000105E010
:100820000A0A0BE0010A2BE03CD00401586B596B1B
:10083000020E0001AF6FECDD35D0AC531EE0010EAF
:10084000AC5D036AF2CFADF0F29E9FDCADBFF28EDD
:10085000016E04011C5DD8A002D000010ED0036A15
:100860001C51290FE96E000E0320EA6EEFCF58F4F9
:10087000010E0001AF6FCCDD01D0CDDD13D0AC5344
:100880000EE0036A04011C51290FE96E000E0320DB
:10089000EA6E1AC4EFFF0001AF6BBADD01D0BBDD19
:1008A00001D0B9DD7CEF05F0AD91ACBFAD81AC9F5F
:1008B000ADA117D0BC6BACC0BBF0BE6B080EBD6F5A
:1008C000F2DC02C0AFF001C0AEF0040EAE27000EA5
:1008D000AF23AEC0E9FF040EAF25EA6E880EEF6EBF
:1008E0000DD0BC6BACC0BBF0BE6B080EBD6FDBDCCB
:1008F00001C0E9FF040E0224EA6EEF6AF4EF04F08F
:10090000AD91ACBFAD81AC9FADA117D0BC6BACC0FD
:10091000BBF0BE6B080EBD6FC6DC02C0AFF001C0FD
:10092000AEF0040EAE27000EAF23AEC0E9FF040EFA
:10093000AF25EA6E840EEF6E0ED0BC6BACC0BBF080
:10094000BE6B080EBD6FAFDC01C0E9FF040E0224D0
:10095000EA6E840EEF6EFAEF04F0AD91ACBFAD819C
:10096000AC9FADA117D0BC6BACC0BBF0BE6B080E8A
:10097000BD6F99DC02C0B0F001C0AFF0040EAF272C
:10098000000EB023AFC0E9FF040EB025EA6EEFCF32
:10099000AEF00ED0BC6BACC0BBF0BE6B080EBD6F32
:1009A00082DC01C0E9FF040E0224EA6EEFCFAEF054
:1009B000AEAF02D0AEB502D0000E01D0010E016E76
:1009C00004EF05F01CC4B6F043DC015228E004013A
:1009D0001951010A000105E0020A09E0030A0DE0CD
:1009E0001DD01CC4ACF060D7AF6B12DD18D01CC496
:1009F000ACF086D7AF6B0CDD12D00401586B596B8D
:100A00001CC4ACF00001A9D7015204E0010E04019E
:100A1000586F0001020EAF6FFBDC01D0FCDC7CEFF5
:100A200005F0FE0E236E120004011C2D01D002D031
:100A30001C5348E11951000A00010BE0010A0DE0C6
:100A4000210A1CE0010A1FE0030A2EE0010A31E03E
:100A500037D0010E7E6FE5DF34D0040EEA6E580EFB
:100A6000E96EE26A340EE16E080E016EE6CFEEFF2B
:100A7000012EFCD71EC4AFF0CBDC23D0020E7E6F5C
:100A80007C81CFDF1ED0040EEA6E580EE96EE26A5A
:100A90002B0EE16E070E016EE6CFEEFF012EFCD7A6
:100AA000070EAF6FB5DC0DD01AC47DF0AF6BB0DCB4
:100AB00008D01AC433F01BC432F0AF6BA9DC01D0EC
:100AC000AADC040100017CEF05F0176A040118514B
:100AD0007F0B000A000107E0010A07E0030A07E0B4
:100AE000230A07E008D040D607D093D605D06AD7AE
:100AF00003D09AD701D08FDCA8EF07F0BC6BADC054
:100B0000BBF0BE6B080EBD6F53EC01F001C0E9FFF6
:100B1000040E0224EA6EEFCFAFF0AE51020806E1F8
:100B2000AFAD02D0AE6B02D0010EAE6FAE51030876
:100B30001AE1840EAF6FBC6BADC0BBF0BE6B080E8C
:100B4000BD6F53EC01F002C0B3F001C0B2F0040E6F
:100B5000B227000EB323B2C0E9FF040EB325EA6E3C
:100B6000840EEF6E07D0AE2D03D0C80EAF6F02D04B
:100B7000880EAF6FD890AD35036AF2CFB2F0F29E17
:100B800083EC00F00900F5CF03F0B2BFF28EB06F36
:100B900003C0B1F0BC6BADC0BBF0BE6B080EBD6F47
:100BA00053EC01F001C0B2F0010E0124016E000E01
:100BB0000220036E01C0E9FF040E0324EA6EB0C0F8
:100BC000EFFFB1A101D0AF81B1A301D0AF83BC6B66
:100BD000ADC0BBF0BE6B080EBD6F53EC01F001C0A1
:100BE000E9FF040E0224EA6EAFC0EFFF1200036AB1
:100BF000BA51700FE96E0F0E0320EA6EEF5219E042
:100C0000BC6BBAC0BBF0BE6B080EBD6F53EC01F0FD
:100C100002C0BCF001C0BBF0040EBB27000EBC2319
:100C2000BBC0E9FF040EBC25EA6EEFCFBDF0BDAF3F
:100C300002D0000E01D0010E016E1200B5C0BAF054
:100C4000D6DF0152D8B47DD0BC6BB5C0BBF0BE6B53
:100C5000080EBD6F53EC01F002C0BBF001C0BAF04A
:100C6000040EBA27000EBB23010EBA25016E000E3A
:100C7000BB21036E01C0E9FF040E0324EA6EB6C077
:100C8000EFFFB85102081EE1BC6BB5C0BBF0BE6BF4
:100C9000080EBD6F53EC01F002C0BBF001C0BAF00A
:100CA000040EBA27000EBB23BAC0E9FF040EBB2511
:100CB000EA6EEFCFB9F0B9AD02D0B86B02D0010E39
:100CC000B86F18D0B851040815E1BC6BB5C0BBF0C3
:100CD000BE6B080EBD6F53EC01F001C0E9FF040EBE
:100CE0000224EA6EEFCFB9F0B9AD03D0010EB86FB0
:100CF00001D0B86BB82D03D0C80EB96F02D0880EE2
:100D0000B96FB7A101D0B981B7A301D0B983BC6BCA
:100D1000B5C0BBF0BE6B080EBD6F53EC01F002C056
:100D2000BBF001C0BAF0040EBA27000EBB23BAC054
:100D3000E9FF040EBB25EA6EB9C0EFFF010E016E9C
:100D400002D0000E016E12007E51010A03E0030A78
:100D500013E024D0EA6A340EE96E040EE26E180E37
:100D6000E16E080E016EE6CFEEFF012EFCD7AF6BF1
:100D700008EC02F07E6B13D0EA6A2B0EE96E040ECB
:100D8000E26E180EE16E070E016EE6CFEEFF012E49
:100D9000FCD77E6BAF6B08EC02F001D07E6B05EFE9
:100DA00007F0BC6BADC0BBF0BE6B080EBD6F53EC63
:100DB00001F002C0AFF001C0AEF0010E0124016EDF
:100DC000000E0220036E01C0E9FF040E0324EA6E48
:100DD000036AEFCF01F003C002F0FBEF06F01E90B4
:100DE000020EAD6FAE6F8ADE00EF07F01E80206A44
:100DF000020EAD6FD6D701C01FF01F5201E1EFD731
:100E00000AEF07F0AC5302E19FD704D0AC510208BF
:100E100001E1ECD71200ADC06EFFAD5303E0040E4C
:100E2000226E02D0020E226E1BEF07F0186A176ABC
:100E300024C0ADF0F0D787EF07F0ADC0BAF0D7DE31
:100E4000015243E0BC6BADC0BBF0BE6B080EBD6F82
:100E500053EC01F002C0B6F001C0B5F0040EB527A6
:100E6000000EB623020EB525016E000EB621036EEC
:100E700001C0E9FF040E0324EA6EECCFB4F0ED529A
:100E8000EFCFB3F0B4C0EAFFB3C0E9FFAFC0E2FFF9
:100E9000AEC0E1FFB1C002F0B0C001F0015202E00B
:100EA000022A02D0025206E0E6CFEEFF012EFCD766
:100EB000022EFAD7ADC0B5F0B1C0B7F0B0C0B6F0F1
:100EC000B2C0B8F0BBDE015002D0000E016E1200BD
:100ED0007B530EE0020EAD6FAF6B3C0EAE6FB16B8D
:100EE0007BC0B0F0020EB26FA8DF015201E07B6B55
:100EF0001200EEDF8CEF07F0AC530AE1172C03D0A1
:100F00000DEC02F004D017500208D8B48FD704D0EB
:100F1000AC51020801E1EDD712002130AA6FAA33CB
:100F2000AA331F0EAA17215241E1040100513C0BC4
:100F30000001AB6F430E040100170001AB513408F0
:100F40001EE104010451800B01E0046B0001BDD5DA
:100F50006D98233C05D0AD6B030EAE6FCFDD0ED088
:100F6000AD6B020EAE6FCADD2350FE0807E0B56B15
:100F7000B76B23C0B6F0040EB86F60DE16D0AB516D
:100F8000040813E1AC6B3EDFAD6B020EAE6FB6DD55
:100F90002350FE080AE0233C01D007D0B56BB76BA5
:100FA00023C0B6F0010EB86F49DE1AD021500408F4
:100FB0000EE12368AC6BA0DF233C01D007D0B56BFA
:100FC000B76B23C0B6F0020EB86F38DE09D021B47B
:100FD00004D0AAC0ACF016DF03D0AAC0ACF08CDFFE
:100FE00023EF08F0A19A2252D8B433D06852D8B473
:100FF00030D068A403D069B405EF01F06DB229D0F8
:1010000068AA03D069BA1DEF01F068A203D069B2E3
:1010100024EF01F068A003D069B0EBEF01F068A8FD
:1010200003D069B800EF02F068AC03D069BC05EFEB
:1010300002F0A96B68A608D069A606D06CCF21F093
:1010400002EC00F06AD701D004D0A951A92B030803
:10105000F1E22AEF00F00D20566F6C746167653D78
:101060002530312E326656006D6A696A080E6F6E41
:1010700094503009946E226A166AF2BE168EF29E61
:10108000D5EC01F016BEF28E47EF08F0EDD76CEF0D
:1010900008F0166AF2BE168EF29ED5EC01F016BE6E
:1010A000F28E6D6A140E6F6E696A6D86010E226E85
:1010B0005DEF08F06DB601D0ECD7222C0BD06DBAE5
:1010C00009D0686A696AA08AC00EF212110E696EB0
:1010D000020E226E1200DAD7EDDF22500208FCE188
:1010E00047EF0BF01850016E5DEF0BF08E0E006EA7
:1010F00088C001F087C002F0036A015209E102C012
:1011000001F0026A080E005E015202E1006A08D096
:10111000D89001BE04D0023601360006F9D7019EF0
:1011200072EF0BF09451D8B471D0006E9851D8B4CE
:101130006DD0002604E3810E002668E204D07F0E05
:10114000005E64E363E095C09CF099519C1B958F11
:10115000998F97519B03F4CF9EF096519A03F4CF49
:1011600003F0F3CF9DF09B03F3509E27F4509D2393
:10117000000E032297519A03F3509E27F4509D23AB
:10118000000E026A0322022295519B03F3509D2711
:10119000F4500322000E022295519A03F3500326C5
:1011A000F4500222000E016A012297519903F35074
:1011B0009D27F4500322000E02220122965199032A
:1011C000F3500326F4500222000E01229551990398
:1011D000F3500226F4500122002A01BE05D09D37AB
:1011E0000336023601360006000E9DAF0AD0032AF0
:1011F00002220122015005E1025003E1035001E106
:10120000002A9CBF018E9CAF019E04D0006A016A37
:10121000026A036A12008B51D8B4A5D0976F8F5120
:10122000D8B4A1D0975F05E37F0E9727D8B09BD0A5
:1012300006D0810E975FD8A096D0D8B494D097C02E
:1012400000F0016A026A036A966B8CC095F0958F74
:101250008DC094F08EC093F0190E976F9251935FEA
:101260000DE2010E945F0AE2955F08E2965F06E2E6
:10127000962B952B942B9251932728D09151945FC4
:1012800012E2010E955F0FE2965F0DE2962B952B11
:10129000915194279251932719E3942B17E1952BA1
:1012A00015E1962B13D090518009955F0EE2010E47
:1012B000965F0BE2962B90518009952791519427C8
:1012C000E9E3952BE7E1962BE5D70380972F01D033
:1012D0000BD0D8909337943795379637D8900336FC
:1012E000023601369837BAD798A106D0D890013285
:1012F00002320332983302D0000635E098BF1ED088
:10130000D89093379437953796379251935F07E289
:10131000010E945F04E2955F02E2965F1AE3915139
:10132000945F05E2010E955F02E2965F12E3905131
:101330008009955F03E2010E965F0BE3032A09E142
:10134000022A07E1012A05E1002A0DE001320232FA
:1013500003328CC097F09051971B97AF02D0018E4B
:1013600006D0019E04D0006A016A026A036A97EF00
:101370000BF09791A0BA9781A09A7B513E0802E2A8
:101380003E0E7B6F7B517B2B036A3C0FE96E000E98
:101390000320EA6E96C0EFFFA09A97B1A08AD4EF1F
:1013A00009F095C096F0E5D7166AF2BE168EF29E49
:1013B0008FDD16BEF28EE4EF09F07B513E0801E2AC
:1013C000FCD794C095F0EDD712000900F6CF88F055
:1013D000F7CF89F0F5CF94F0F0DF88C0F6FF89C031
:1013E000F7FF872FF2D7A6EF0BF09451B608946F52
:1013F000036A95C098F0958FD890953396339733BC
:101400000332023201320032942FF6D798AF0BD05C
:10141000001E011E021E031E002AD8B4012AD8B4E1
:10142000022AD8B4032A83EF0AF0D8B203D0EA6ABA
:101430009C0EE96E006A016A026A036A9C6B9D6BEE
:101440009E6B9F6B9B519A11991198112CE0200E65
:10145000A06FD89094379537963797379C379D373C
:101460009E379F379B519F5D08E19A519E5D05E134
:1014700099519D5D02E198519C5D0FE398519C5FED
:101480009951D8A0993D9D5F9A51D8A09A3D9E5FF1
:101490009B51D8A09B3D9F5FD88000360136023615
:1014A0000336A02FD6D79CC0EFFF9DC0ECFF9EC097
:1014B000ECFF9FC0ECFF1200E9508C6F8B518E6FD8
:1014C00019E08AC097F089C096F088C095F087C06F
:1014D00094F09B6B9A6B200E996F820E986F22DEB0
:1014E00003C08AF002C089F001C088F000C087F014
:1014F0008E2FE7D78AC097F089C096F088C095F004
:1015000087C094F072D703C08AF002C089F001C08E
:1015100088F000C087F08AAF0DD08C078C8B871FB6
:10152000881F891F8A1F872BD8B4882BD8B4892B92
:10153000D8B48A2B3B0E936F9A0E926FCA0E916F9E
:10154000906B0A0E8E6F8B51D8B48C2BD882EA6ABE
:10155000870EE96E8AC097F089C096F088C095F032
:1015600087C094F093C09BF092C09AF091C099F01C
:1015700090C098F05ADF015000520FE18B298E5D28
:101580000CE08C510CE00F0B8E5D01E037E28CBF5C
:1015900035D08CBD04D0200E2DD0200E8C178CABF6
:1015A0000CD08C9B8B51D8A48C0700508C6F2D0EC7
:1015B000946F03DF8C51006E8C6B8B518E5D0AE152
:1015C00000508C6F2E0E946FF8DE8C51006E200E42
:1015D0008C17000E300E8CAB0DD08C9B8B51D8A489
:1015E0008C0700508C6F2D0E946FE7DE8C51006ECF
:1015F0008C6B300E002600C094F0DFDED89293C0D2
:1016000097F092C096F091C095F090C094F09B6BCB
:101610009A6B996B0A0E986F08DF03C093F002C0B3
:1016200092F001C091F000C090F08E2F8FD7B3EFF1
:101630000BF0EA6A870EE96EEF500EE00F0E016EB6
:10164000006A002EFED7012EFBD78F0E006E002EF3
:10165000FED70000EF2EF2D7BFEF0BF0F86AD09E56
:10166000078EC150C00B0F09C16E070EB46E1B6A06
:10167000040E1C6E0C0E1D6E95928C92166AF2BEB4
:10168000168EF29E9DEC01F016BEF28E24D57CA142
:10169000FED710DD826B816BC150C00B0E09C16E8D
:1016A000C050C00B0709C06EC09EC280000E016E04
:1016B000C250C30B0110C26E15D5015260E0C28248
:1016C000C2B2FED7806BC4CF7FF081517F5D03E152
:1016D0008251805D4BE095928C8280C088F07FC003
:1016E00087F004D5976B966B200E956F810E946FE3
:1016F00003C09BF002C09AF001C099F000C098F0BE
:1017000011DD03C08AF002C089F001C088F000C07A
:1017100087F003C08EF002C08DF001C08CF000C0D5
:101720008BF0926B916B906B890E8F6F74D503C0A9
:1017300086F002C085F001C084F000C083F0560E30
:10174000F66E100EF76E0A0E876F3FD6C90EE96E61
:1017500086C08AF085C089F084C088F083C087F095
:10176000020E8B6FA9D6560E946F27DE80C082F0D2
:101770007FC081F095928C92640E876F5AD789D77B
:06178000000E016E0300E3
:020000040030CA
:0E00000024CE3E1E0005A1000FC00FE00F40F1
:00000001FF
;PIC18F4550
;CRC=653A  CREATED="25-mai-15 07:55"
